{
  "contractName": "zorToken",
  "abi": [
    {
      "inputs": [],
      "payable": false,
      "stateMutability": "nonpayable",
      "type": "constructor"
    },
    {
      "constant": true,
      "inputs": [],
      "name": "totalSupply",
      "outputs": [
        {
          "internalType": "uint256",
          "name": "",
          "type": "uint256"
        }
      ],
      "payable": false,
      "stateMutability": "view",
      "type": "function"
    }
  ],
  "bytecode": "0x6080604052348015600f57600080fd5b50620f42406000819055506084806100286000396000f3fe6080604052348015600f57600080fd5b506004361060285760003560e01c806318160ddd14602d575b600080fd5b60336049565b6040518082815260200191505060405180910390f35b6000548156fea265627a7a723158205cd46201ec9e32684141aa829d26d7a3c7b8f7c43ef1758128e7e03ebff2eea664736f6c634300050c0032",
  "source": "pragma solidity ^0.5.0;\n\ncontract zorToken\n{\n    // State variable , publicly visible\n    uint256 public totalSupply;\n    constructor () public\n    {\n        totalSupply = 1000000;\n    }\n}",
  "sourcePath": "/home/ishar/Desktop/General/work/Projects/token-zor/contracts/zorToken.sol",
  "compiler": {
    "name": "solc",
    "version": "0.5.12+commit.7709ece9.Emscripten.clang"
  },
  "schemaVersion": "3.0.20",
  "updatedAt": "2020-01-08T21:11:29.728Z",
  "networkType": "ethereum",
  "devdoc": {
    "methods": {}
  },
  "userdoc": {
    "methods": {}
  }
}